0SECURITY MASTER     0000000001MIDFS20240220061007
1CM14098       MBHEGAN@EC2406A                                                                                                                                                         琣w麥銀四六購Ａ　　　　　　　                                           NADWARWTSHKDN                          2023030120240604                            0000004888000             0000000005000            14098.HK    0000000001000N01044
1CM00424       MECOM PWR W2405                                                                                                                                                         澳能建設二四零五　　　　　　　                                           KYWRNTWTSHKDN                          2023052520240524                            0000000178000             0000000002000KYG5960P12020424.HK     0000000001000Y01183
1CM12229       MB-SZIG@EC2404A                                                                                                                                                         申洲麥銀四四購Ａ　　　　　　　                                           NADWARWTSHKDN                          2023011720240402                            0000012788000             0000000010000            12229.HK    0000000001300N02313
1CM17208       UB-HTSE@EC2412A                                                                                                                                                         海通瑞銀四乙購Ａ　　　　　　　                                           CHDWARWTSHKDN                          2023052520241220                            0000000677000             0000000002000CH126968347517208.HK    0000000001200N06837
1CM00424       MECOM PWR W2405                                                                                                                                                         澳能建設二四零五　　　　　　　                                           KYWRNTWTSHKDN                          2023052520240524                            0000000178000             0000000002000KYG5960P12020424.HK     0000000001000Y01183
1CM02403       STYLAND W2410                                                                                                                                                           　　　　　　　　　　　　　　　                                           BMWRNTWTSHKDN                          2023100620241004                            0000000013800             0000000020000BMG8540A33282403.HK     0000000003500Y00211
1AM02921       PHOENIX TV                                                                                                                                                              鳳凰衛視　　　　　　　　　　　                                           KYEQTYSHSHKDN                          20000630                                                              0000000000200KYG7062611722921.HK     0000000219000Y     
1CM04801       INTERRA ACQ Z25                                                                                                                                                         　　　　　　　　　　　　　　　                                           KYWRNTWTSHKDN                          2022091620250916                            0000001150000             0000000022000KYG4922M10154801.HK     0000000001000Y     
9000000008