HEADER GSOPS-WPC Prod Sync iF RS@SDIP dummydummy20230829180022P
CU62791      UNTS            CU20230905               *              20230829174005
 U62792      UNTS            WW20230906UT             *              20230829174005
MU62794      UNTS            GO20230908UT             *              20230829174005
DU62793      UNTS            CN20230907UT             *              20230829174005
AU62795      UNTS            OS00000000UT             *              20230829174005
UU62796      UNTS            OS00000000UT             *              20230829174005
CU62797      UNTS            OS20230908UT             *              20230829174005
TRAILERGSOPS-WPC Prod Sync iF RS@SDIP dummydummy0000002000000000000000+
